{
  "_format": "hh-sol-artifact-1",
  "contractName": "Feedback",
  "sourceName": "contracts/Feedback.sol",
  "abi": [
    {
      "anonymous": false,
      "inputs": [
        {
          "indexed": true,
          "internalType": "address",
          "name": "student",
          "type": "address"
        },
        {
          "indexed": false,
          "internalType": "string",
          "name": "courseId",
          "type": "string"
        },
        {
          "indexed": false,
          "internalType": "string",
          "name": "feedback",
          "type": "string"
        },
        {
          "indexed": false,
          "internalType": "uint256",
          "name": "timestamp",
          "type": "uint256"
        }
      ],
      "name": "FeedbackSubmitted",
      "type": "event"
    },
    {
      "inputs": [
        {
          "internalType": "string",
          "name": "",
          "type": "string"
        },
        {
          "internalType": "uint256",
          "name": "",
          "type": "uint256"
        }
      ],
      "name": "courseFeedbacks",
      "outputs": [
        {
          "internalType": "address",
          "name": "student",
          "type": "address"
        },
        {
          "internalType": "string",
          "name": "courseId",
          "type": "string"
        },
        {
          "internalType": "string",
          "name": "feedback",
          "type": "string"
        },
        {
          "internalType": "uint256",
          "name": "timestamp",
          "type": "uint256"
        }
      ],
      "stateMutability": "view",
      "type": "function"
    },
    {
      "inputs": [
        {
          "internalType": "string",
          "name": "courseId",
          "type": "string"
        }
      ],
      "name": "getFeedback",
      "outputs": [
        {
          "components": [
            {
              "internalType": "address",
              "name": "student",
              "type": "address"
            },
            {
              "internalType": "string",
              "name": "courseId",
              "type": "string"
            },
            {
              "internalType": "string",
              "name": "feedback",
              "type": "string"
            },
            {
              "internalType": "uint256",
              "name": "timestamp",
              "type": "uint256"
            }
          ],
          "internalType": "struct Feedback.CourseFeedback[]",
          "name": "",
          "type": "tuple[]"
        }
      ],
      "stateMutability": "view",
      "type": "function"
    },
    {
      "inputs": [
        {
          "internalType": "string",
          "name": "courseId",
          "type": "string"
        },
        {
          "internalType": "string",
          "name": "feedback",
          "type": "string"
        }
      ],
      "name": "submitFeedback",
      "outputs": [],
      "stateMutability": "nonpayable",
      "type": "function"
    }
  ],
  "bytecode": "0x608060405234801561001057600080fd5b50610ee3806100206000396000f3fe608060405234801561001057600080fd5b50600436106100415760003560e01c806305f5f822146100465780631af31b7f14610079578063ab26fb9f14610095575b600080fd5b610060600480360381019061005b9190610742565b6100c5565b604051610070949392919061086d565b60405180910390f35b610093600480360381019061008e91906108c0565b610258565b005b6100af60048036038101906100aa9190610938565b6103b1565b6040516100bc9190610b15565b60405180910390f35b60008280516020810182018051848252602083016020850120818352809550505050505081815481106100f757600080fd5b9060005260206000209060040201600091509150508060000160009054906101000a900473ffffffffffffffffffffffffffffffffffffffff169080600101805461014190610b66565b80601f016020809104026020016040519081016040528092919081815260200182805461016d90610b66565b80156101ba5780601f1061018f576101008083540402835291602001916101ba565b820191906000526020600020905b81548152906001019060200180831161019d57829003601f168201915b5050505050908060020180546101cf90610b66565b80601f01602080910402602001604051908101604052809291908181526020018280546101fb90610b66565b80156102485780601f1061021d57610100808354040283529160200191610248565b820191906000526020600020905b81548152906001019060200180831161022b57829003601f168201915b5050505050908060030154905084565b600060405180608001604052803373ffffffffffffffffffffffffffffffffffffffff1681526020018481526020018381526020014281525090506000836040516102a39190610bd3565b908152602001604051809103902081908060018154018082558091505060019003906000526020600020906004020160009091909190915060008201518160000160006101000a81548173ffffffffffffffffffffffffffffffffffffffff021916908373ffffffffffffffffffffffffffffffffffffffff16021790555060208201518160010190816103379190610d96565b50604082015181600201908161034d9190610d96565b506060820151816003015550503373ffffffffffffffffffffffffffffffffffffffff167fb4fab602968d0905326921098f30b140ca12d3031067a0b6aa75ca1bc890f65f8484426040516103a493929190610e68565b60405180910390a2505050565b60606000826040516103c39190610bd3565b9081526020016040518091039020805480602002602001604051908101604052809291908181526020016000905b828210156105a757838290600052602060002090600402016040518060800160405290816000820160009054906101000a900473ffffffffffffffffffffffffffffffffffffffff1673ffffffffffffffffffffffffffffffffffffffff1673ffffffffffffffffffffffffffffffffffffffff16815260200160018201805461047a90610b66565b80601f01602080910402602001604051908101604052809291908181526020018280546104a690610b66565b80156104f35780601f106104c8576101008083540402835291602001916104f3565b820191906000526020600020905b8154815290600101906020018083116104d657829003601f168201915b5050505050815260200160028201805461050c90610b66565b80601f016020809104026020016040519081016040528092919081815260200182805461053890610b66565b80156105855780601f1061055a57610100808354040283529160200191610585565b820191906000526020600020905b81548152906001019060200180831161056857829003601f168201915b50505050508152602001600382015481525050815260200190600101906103f1565b505050509050919050565b6000604051905090565b600080fd5b600080fd5b600080fd5b600080fd5b6000601f19601f8301169050919050565b7f4e487b7100000000000000000000000000000000000000000000000000000000600052604160045260246000fd5b610619826105d0565b810181811067ffffffffffffffff82111715610638576106376105e1565b5b80604052505050565b600061064b6105b2565b90506106578282610610565b919050565b600067ffffffffffffffff821115610677576106766105e1565b5b610680826105d0565b9050602081019050919050565b82818337600083830152505050565b60006106af6106aa8461065c565b610641565b9050828152602081018484840111156106cb576106ca6105cb565b5b6106d684828561068d565b509392505050565b600082601f8301126106f3576106f26105c6565b5b813561070384826020860161069c565b91505092915050565b6000819050919050565b61071f8161070c565b811461072a57600080fd5b50565b60008135905061073c81610716565b92915050565b60008060408385031215610759576107586105bc565b5b600083013567ffffffffffffffff811115610777576107766105c1565b5b610783858286016106de565b92505060206107948582860161072d565b9150509250929050565b600073ffffffffffffffffffffffffffffffffffffffff82169050919050565b60006107c98261079e565b9050919050565b6107d9816107be565b82525050565b600081519050919050565b600082825260208201905092915050565b60005b838110156108195780820151818401526020810190506107fe565b60008484015250505050565b6000610830826107df565b61083a81856107ea565b935061084a8185602086016107fb565b610853816105d0565b840191505092915050565b6108678161070c565b82525050565b600060808201905061088260008301876107d0565b81810360208301526108948186610825565b905081810360408301526108a88185610825565b90506108b7606083018461085e565b95945050505050565b600080604083850312156108d7576108d66105bc565b5b600083013567ffffffffffffffff8111156108f5576108f46105c1565b5b610901858286016106de565b925050602083013567ffffffffffffffff811115610922576109216105c1565b5b61092e858286016106de565b9150509250929050565b60006020828403121561094e5761094d6105bc565b5b600082013567ffffffffffffffff81111561096c5761096b6105c1565b5b610978848285016106de565b91505092915050565b600081519050919050565b600082825260208201905092915050565b6000819050602082019050919050565b6109b6816107be565b82525050565b600082825260208201905092915050565b60006109d8826107df565b6109e281856109bc565b93506109f28185602086016107fb565b6109fb816105d0565b840191505092915050565b610a0f8161070c565b82525050565b6000608083016000830151610a2d60008601826109ad565b5060208301518482036020860152610a4582826109cd565b91505060408301518482036040860152610a5f82826109cd565b9150506060830151610a746060860182610a06565b508091505092915050565b6000610a8b8383610a15565b905092915050565b6000602082019050919050565b6000610aab82610981565b610ab5818561098c565b935083602082028501610ac78561099d565b8060005b85811015610b035784840389528151610ae48582610a7f565b9450610aef83610a93565b925060208a01995050600181019050610acb565b50829750879550505050505092915050565b60006020820190508181036000830152610b2f8184610aa0565b905092915050565b7f4e487b7100000000000000000000000000000000000000000000000000000000600052602260045260246000fd5b60006002820490506001821680610b7e57607f821691505b602082108103610b9157610b90610b37565b5b50919050565b600081905092915050565b6000610bad826107df565b610bb78185610b97565b9350610bc78185602086016107fb565b80840191505092915050565b6000610bdf8284610ba2565b915081905092915050565b60008190508160005260206000209050919050565b60006020601f8301049050919050565b600082821b905092915050565b600060088302610c4c7fffffffffffffffffffffffffffffffffffffffffffffffffffffffffffffffff82610c0f565b610c568683610c0f565b95508019841693508086168417925050509392505050565b6000819050919050565b6000610c93610c8e610c898461070c565b610c6e565b61070c565b9050919050565b6000819050919050565b610cad83610c78565b610cc1610cb982610c9a565b848454610c1c565b825550505050565b600090565b610cd6610cc9565b610ce1818484610ca4565b505050565b5b81811015610d0557610cfa600082610cce565b600181019050610ce7565b5050565b601f821115610d4a57610d1b81610bea565b610d2484610bff565b81016020851015610d33578190505b610d47610d3f85610bff565b830182610ce6565b50505b505050565b600082821c905092915050565b6000610d6d60001984600802610d4f565b1980831691505092915050565b6000610d868383610d5c565b9150826002028217905092915050565b610d9f826107df565b67ffffffffffffffff811115610db857610db76105e1565b5b610dc28254610b66565b610dcd828285610d09565b600060209050601f831160018114610e005760008415610dee578287015190505b610df88582610d7a565b865550610e60565b601f198416610e0e86610bea565b60005b82811015610e3657848901518255600182019150602085019450602081019050610e11565b86831015610e535784890151610e4f601f891682610d5c565b8355505b6001600288020188555050505b505050505050565b60006060820190508181036000830152610e828186610825565b90508181036020830152610e968185610825565b9050610ea5604083018461085e565b94935050505056fea2646970667358221220eeb0e5cb407f45f6116880d0598e68b31e9520204b67a12039fb9240e3f730e664736f6c63430008110033",
  "linkReferences": {},
  "deployedLinkReferences": {}
}